{
  "contractName": "Instagram",
  "abi": [
    {
      "anonymous": false,
      "inputs": [
        {
          "indexed": false,
          "internalType": "uint256",
          "name": "id",
          "type": "uint256"
        },
        {
          "indexed": false,
          "internalType": "address",
          "name": "postTipper",
          "type": "address"
        },
        {
          "indexed": false,
          "internalType": "uint256",
          "name": "tipAmmount",
          "type": "uint256"
        },
        {
          "indexed": false,
          "internalType": "string",
          "name": "hash",
          "type": "string"
        },
        {
          "indexed": false,
          "internalType": "string",
          "name": "description",
          "type": "string"
        }
      ],
      "name": "ImageTipped",
      "type": "event"
    },
    {
      "anonymous": false,
      "inputs": [
        {
          "indexed": false,
          "internalType": "uint256",
          "name": "id",
          "type": "uint256"
        },
        {
          "indexed": false,
          "internalType": "string",
          "name": "hash",
          "type": "string"
        },
        {
          "indexed": false,
          "internalType": "string",
          "name": "description",
          "type": "string"
        },
        {
          "indexed": false,
          "internalType": "uint256",
          "name": "tipAmmount",
          "type": "uint256"
        },
        {
          "indexed": false,
          "internalType": "address payable",
          "name": "author",
          "type": "address"
        }
      ],
      "name": "ImageUploaded",
      "type": "event"
    },
    {
      "inputs": [
        {
          "internalType": "uint256",
          "name": "",
          "type": "uint256"
        }
      ],
      "name": "allImage",
      "outputs": [
        {
          "internalType": "uint256",
          "name": "id",
          "type": "uint256"
        },
        {
          "internalType": "string",
          "name": "hash",
          "type": "string"
        },
        {
          "internalType": "string",
          "name": "description",
          "type": "string"
        },
        {
          "internalType": "uint256",
          "name": "tipAmmount",
          "type": "uint256"
        },
        {
          "internalType": "address payable",
          "name": "author",
          "type": "address"
        }
      ],
      "stateMutability": "view",
      "type": "function",
      "constant": true
    },
    {
      "inputs": [],
      "name": "imageCount",
      "outputs": [
        {
          "internalType": "uint256",
          "name": "",
          "type": "uint256"
        }
      ],
      "stateMutability": "view",
      "type": "function",
      "constant": true
    },
    {
      "inputs": [
        {
          "internalType": "uint256",
          "name": "",
          "type": "uint256"
        }
      ],
      "name": "images",
      "outputs": [
        {
          "internalType": "uint256",
          "name": "id",
          "type": "uint256"
        },
        {
          "internalType": "string",
          "name": "hash",
          "type": "string"
        },
        {
          "internalType": "string",
          "name": "description",
          "type": "string"
        },
        {
          "internalType": "uint256",
          "name": "tipAmmount",
          "type": "uint256"
        },
        {
          "internalType": "address payable",
          "name": "author",
          "type": "address"
        }
      ],
      "stateMutability": "view",
      "type": "function",
      "constant": true
    },
    {
      "inputs": [],
      "name": "name",
      "outputs": [
        {
          "internalType": "string",
          "name": "",
          "type": "string"
        }
      ],
      "stateMutability": "view",
      "type": "function",
      "constant": true
    },
    {
      "inputs": [
        {
          "internalType": "string",
          "name": "_imageHash",
          "type": "string"
        },
        {
          "internalType": "string",
          "name": "_description",
          "type": "string"
        }
      ],
      "name": "uploadImage",
      "outputs": [],
      "stateMutability": "nonpayable",
      "type": "function"
    },
    {
      "inputs": [],
      "name": "allImages",
      "outputs": [
        {
          "components": [
            {
              "internalType": "uint256",
              "name": "id",
              "type": "uint256"
            },
            {
              "internalType": "string",
              "name": "hash",
              "type": "string"
            },
            {
              "internalType": "string",
              "name": "description",
              "type": "string"
            },
            {
              "internalType": "uint256",
              "name": "tipAmmount",
              "type": "uint256"
            },
            {
              "internalType": "address payable",
              "name": "author",
              "type": "address"
            }
          ],
          "internalType": "struct Instagram.Image[]",
          "name": "",
          "type": "tuple[]"
        }
      ],
      "stateMutability": "view",
      "type": "function",
      "constant": true
    },
    {
      "inputs": [
        {
          "internalType": "uint256",
          "name": "_id",
          "type": "uint256"
        }
      ],
      "name": "tipImageOwner",
      "outputs": [],
      "stateMutability": "payable",
      "type": "function",
      "payable": true
    }
  ],
  "bytecode": "0x60806040526040518060400160405280600d81526020017f496e7374616772616d446170700000000000000000000000000000000000000081525060009080519060200190620000519291906200006b565b5060006001553480156200006457600080fd5b5062000111565b828054600181600116156101000203166002900490600052602060002090601f016020900481019282601f10620000ae57805160ff1916838001178555620000df565b82800160010185558215620000df579182015b82811115620000de578251825591602001919060010190620000c1565b5b509050620000ee9190620000f2565b5090565b5b808211156200010d576000816000905550600101620000f3565b5090565b61176b80620001216000396000f3fe6080604052600436106100705760003560e01c8063848564821161004e578063848564821461010c5780638567ade81461014d57806392053b6314610169578063a91b83141461019457610070565b806306fdde03146100755780631e181319146100a057806328c186ef146100e1575b600080fd5b34801561008157600080fd5b5061008a6101bd565b6040516100979190611393565b60405180910390f35b3480156100ac57600080fd5b506100c760048036038101906100c29190610fe7565b61025b565b6040516100d8959493929190611512565b60405180910390f35b3480156100ed57600080fd5b506100f66103ee565b6040516101039190611371565b60405180910390f35b34801561011857600080fd5b50610133600480360381019061012e9190610fe7565b6105fb565b604051610144959493929190611512565b60405180910390f35b61016760048036038101906101629190610fe7565b610781565b005b34801561017557600080fd5b5061017e610a5d565b60405161018b9190611435565b60405180910390f35b3480156101a057600080fd5b506101bb60048036038101906101b69190610f7b565b610a63565b005b60008054600181600116156101000203166002900480601f0160208091040260200160405190810160405280929190818152602001828054600181600116156101000203166002900480156102535780601f1061022857610100808354040283529160200191610253565b820191906000526020600020905b81548152906001019060200180831161023657829003601f168201915b505050505081565b6002818154811061026857fe5b9060005260206000209060050201600091509050806000015490806001018054600181600116156101000203166002900480601f01602080910402602001604051908101604052809291908181526020018280546001816001161561010002031660029004801561031a5780601f106102ef5761010080835404028352916020019161031a565b820191906000526020600020905b8154815290600101906020018083116102fd57829003601f168201915b505050505090806002018054600181600116156101000203166002900480601f0160208091040260200160405190810160405280929190818152602001828054600181600116156101000203166002900480156103b85780601f1061038d576101008083540402835291602001916103b8565b820191906000526020600020905b81548152906001019060200180831161039b57829003601f168201915b5050505050908060030154908060040160009054906101000a900473ffffffffffffffffffffffffffffffffffffffff16905085565b60606002805480602002602001604051908101604052809291908181526020016000905b828210156105f257838290600052602060002090600502016040518060a001604052908160008201548152602001600182018054600181600116156101000203166002900480601f0160208091040260200160405190810160405280929190818152602001828054600181600116156101000203166002900480156104d85780601f106104ad576101008083540402835291602001916104d8565b820191906000526020600020905b8154815290600101906020018083116104bb57829003601f168201915b50505050508152602001600282018054600181600116156101000203166002900480601f01602080910402602001604051908101604052809291908181526020018280546001816001161561010002031660029004801561057a5780601f1061054f5761010080835404028352916020019161057a565b820191906000526020600020905b81548152906001019060200180831161055d57829003601f168201915b50505050508152602001600382015481526020016004820160009054906101000a900473ffffffffffffffffffffffffffffffffffffffff1673ffffffffffffffffffffffffffffffffffffffff1673ffffffffffffffffffffffffffffffffffffffff168152505081526020019060010190610412565b50505050905090565b6003602052806000526040600020600091509050806000015490806001018054600181600116156101000203166002900480601f0160208091040260200160405190810160405280929190818152602001828054600181600116156101000203166002900480156106ad5780601f10610682576101008083540402835291602001916106ad565b820191906000526020600020905b81548152906001019060200180831161069057829003601f168201915b505050505090806002018054600181600116156101000203166002900480601f01602080910402602001604051908101604052809291908181526020018280546001816001161561010002031660029004801561074b5780601f106107205761010080835404028352916020019161074b565b820191906000526020600020905b81548152906001019060200180831161072e57829003601f168201915b5050505050908060030154908060040160009054906101000a900473ffffffffffffffffffffffffffffffffffffffff16905085565b600034116107c4576040517f08c379a00000000000000000000000000000000000000000000000000000000081526004016107bb90611415565b60405180910390fd5b6000811180156107d657506001548111155b610815576040517f08c379a000000000000000000000000000000000000000000000000000000000815260040161080c906113b5565b60405180910390fd5b600060036000838152602001908152602001600020905060008160040160009054906101000a900473ffffffffffffffffffffffffffffffffffffffff1690508073ffffffffffffffffffffffffffffffffffffffff166108fc349081150290604051600060405180830381858888f1935050505015801561089b573d6000803e3d6000fd5b50348260030160008282540192505081905550600260018403815481106108be57fe5b90600052602060002090600502016000808201600090556001820160006108e59190610da6565b6002820160006108f59190610da6565b60038201600090556004820160006101000a81549073ffffffffffffffffffffffffffffffffffffffff02191690555050816002600185038154811061093757fe5b90600052602060002090600502016000820154816000015560018201816001019080546001816001161561010002031660029004610976929190610dee565b506002820181600201908054600181600116156101000203166002900461099e929190610dee565b50600382015481600301556004820160009054906101000a900473ffffffffffffffffffffffffffffffffffffffff168160040160006101000a81548173ffffffffffffffffffffffffffffffffffffffff021916908373ffffffffffffffffffffffffffffffffffffffff1602179055509050507fc3c1495842d595ed40f32c6b143e39e167a2ed3c01f0446f10822608e22b59168333348560010186600201604051610a50959493929190611450565b60405180910390a1505050565b60015481565b6000825111610aa7576040517f08c379a0000000000000000000000000000000000000000000000000000000008152600401610a9e906113d5565b60405180910390fd5b6000815111610aeb576040517f08c379a0000000000000000000000000000000000000000000000000000000008152600401610ae2906113d5565b60405180910390fd5b600073ffffffffffffffffffffffffffffffffffffffff163373ffffffffffffffffffffffffffffffffffffffff161415610b5b576040517f08c379a0000000000000000000000000000000000000000000000000000000008152600401610b52906113f5565b60405180910390fd5b60018054016001819055506040518060a001604052806001548152602001838152602001828152602001600081526020013373ffffffffffffffffffffffffffffffffffffffff16815250600360006001548152602001908152602001600020600082015181600001556020820151816001019080519060200190610be1929190610e75565b506040820151816002019080519060200190610bfe929190610e75565b506060820151816003015560808201518160040160006101000a81548173ffffffffffffffffffffffffffffffffffffffff021916908373ffffffffffffffffffffffffffffffffffffffff1602179055509050507f1a409fdd5763d6f632cc0ec92624ec448fae2c874dc340879889ed07b57f9bde6001548383600033604051610c8d9594939291906114b1565b60405180910390a1600260036000600154815260200190815260200160002090806001815401808255809150506001900390600052602060002090600502016000909190919091506000820154816000015560018201816001019080546001816001161561010002031660029004610d06929190610dee565b5060028201816002019080546001816001161561010002031660029004610d2e929190610dee565b50600382015481600301556004820160009054906101000a900473ffffffffffffffffffffffffffffffffffffffff168160040160006101000a81548173ffffffffffffffffffffffffffffffffffffffff021916908373ffffffffffffffffffffffffffffffffffffffff16021790555050505050565b50805460018160011615610100020316600290046000825580601f10610dcc5750610deb565b601f016020900490600052602060002090810190610dea9190610ef5565b5b50565b828054600181600116156101000203166002900490600052602060002090601f016020900481019282601f10610e275780548555610e64565b82800160010185558215610e6457600052602060002091601f016020900482015b82811115610e63578254825591600101919060010190610e48565b5b509050610e719190610ef5565b5090565b828054600181600116156101000203166002900490600052602060002090601f016020900481019282601f10610eb657805160ff1916838001178555610ee4565b82800160010185558215610ee4579182015b82811115610ee3578251825591602001919060010190610ec8565b5b509050610ef19190610ef5565b5090565b5b80821115610f0e576000816000905550600101610ef6565b5090565b600082601f830112610f2357600080fd5b8135610f36610f31826115a0565b611573565b91508082526020830160208301858383011115610f5257600080fd5b610f5d8382846116cb565b50505092915050565b600081359050610f758161171e565b92915050565b60008060408385031215610f8e57600080fd5b600083013567ffffffffffffffff811115610fa857600080fd5b610fb485828601610f12565b925050602083013567ffffffffffffffff811115610fd157600080fd5b610fdd85828601610f12565b9150509250929050565b600060208284031215610ff957600080fd5b600061100784828501610f66565b91505092915050565b600061101c83836112d6565b905092915050565b61102d81611683565b82525050565b61103c81611647565b82525050565b61104b81611647565b82525050565b600061105c826115f1565b6110668185611614565b935083602082028501611078856115cc565b8060005b858110156110b457848403895281516110958582611010565b94506110a083611607565b925060208a0199505060018101905061107c565b50829750879550505050505092915050565b6110cf81611695565b82525050565b60006110e0826115fc565b6110ea8185611625565b93506110fa8185602086016116da565b6111038161170d565b840191505092915050565b6000611119826115fc565b6111238185611636565b93506111338185602086016116da565b61113c8161170d565b840191505092915050565b600081546001811660008114611164576001811461118a576111ce565b607f60028304166111758187611636565b955060ff1983168652602086019350506111ce565b600282046111988187611636565b95506111a3856115dc565b60005b828110156111c5578154818901526001820191506020810190506111a6565b80880195505050505b505092915050565b60006111e3600f83611636565b91507f696d616765206e6f7420666f756e6400000000000000000000000000000000006000830152602082019050919050565b6000611223601183611636565b91507f696e76616c6964206970667320686173680000000000000000000000000000006000830152602082019050919050565b6000611263602083611636565b91507f496d616765722055706c6f6164657220697320696e207265616c20776f726c646000830152602082019050919050565b60006112a3601483611636565b91507f5469702076616c75652063616e277420626520300000000000000000000000006000830152602082019050919050565b600060a0830160008301516112ee6000860182611353565b506020830151848203602086015261130682826110d5565b9150506040830151848203604086015261132082826110d5565b91505060608301516113356060860182611353565b5060808301516113486080860182611033565b508091505092915050565b61135c81611679565b82525050565b61136b81611679565b82525050565b6000602082019050818103600083015261138b8184611051565b905092915050565b600060208201905081810360008301526113ad818461110e565b905092915050565b600060208201905081810360008301526113ce816111d6565b9050919050565b600060208201905081810360008301526113ee81611216565b9050919050565b6000602082019050818103600083015261140e81611256565b9050919050565b6000602082019050818103600083015261142e81611296565b9050919050565b600060208201905061144a6000830184611362565b92915050565b600060a0820190506114656000830188611362565b6114726020830187611024565b61147f6040830186611362565b81810360608301526114918185611147565b905081810360808301526114a58184611147565b90509695505050505050565b600060a0820190506114c66000830188611362565b81810360208301526114d8818761110e565b905081810360408301526114ec818661110e565b90506114fb60608301856110c6565b6115086080830184611042565b9695505050505050565b600060a0820190506115276000830188611362565b8181036020830152611539818761110e565b9050818103604083015261154d818661110e565b905061155c6060830185611362565b6115696080830184611042565b9695505050505050565b6000604051905081810181811067ffffffffffffffff8211171561159657600080fd5b8060405250919050565b600067ffffffffffffffff8211156115b757600080fd5b601f19601f8301169050602081019050919050565b6000819050602082019050919050565b60008190508160005260206000209050919050565b600081519050919050565b600081519050919050565b6000602082019050919050565b600082825260208201905092915050565b600082825260208201905092915050565b600082825260208201905092915050565b600061165282611659565b9050919050565b600073ffffffffffffffffffffffffffffffffffffffff82169050919050565b6000819050919050565b600061168e826116a7565b9050919050565b60006116a082611679565b9050919050565b60006116b2826116b9565b9050919050565b60006116c482611659565b9050919050565b82818337600083830152505050565b60005b838110156116f85780820151818401526020810190506116dd565b83811115611707576000848401525b50505050565b6000601f19601f8301169050919050565b61172781611679565b811461173257600080fd5b5056fea2646970667358221220354971489f643469f122d669815e853f87102a52f9382cb449eb1e226a91651b64736f6c63430007000033",
  "immutableReferences": {},
  "source": "// SPDX-License-Identifier: MIT\npragma solidity 0.7.0;\npragma experimental ABIEncoderV2;\n\ncontract Instagram {\n    string public name = \"InstagramDapp\";\n    struct Image {\n        uint256 id;\n        string hash;\n        string description;\n        uint256 tipAmmount;\n        address payable author;\n    }\n    uint256 public imageCount = 0;\n    Image[] public allImage;\n    mapping(uint256 => Image) public images;\n    event ImageUploaded(\n        uint256 id,\n        string hash,\n        string description,\n        uint256 tipAmmount,\n        address payable author\n    );\n\n    // Create Images\n    function uploadImage(string memory _imageHash, string memory _description)\n        public\n    {\n        require(bytes(_imageHash).length > 0, \"invalid ipfs hash\");\n        require(bytes(_description).length > 0, \"invalid ipfs hash\");\n        require(msg.sender != address(0), \"Imager Uploader is in real world\");\n        imageCount = imageCount + 1;\n        images[imageCount] = Image(\n            imageCount,\n            _imageHash,\n            _description,\n            0,\n            msg.sender\n        );\n        emit ImageUploaded(imageCount, _imageHash, _description, 0, msg.sender);\n        allImage.push(images[imageCount]);\n    }\n\n    function allImages() public view returns (Image[] memory) {\n        return allImage;\n    }\n\n    event ImageTipped(\n        uint256 id,\n        address postTipper,\n        uint256 tipAmmount,\n        string hash,\n        string description\n    );\n\n    function tipImageOwner(uint256 _id) public payable {\n        require(msg.value > 0, \"Tip value can't be 0\");\n        require(_id > 0 && _id <= imageCount, \"image not found\");\n        Image storage _image = images[_id];\n        address payable _author = _image.author;\n        _author.transfer(msg.value);\n        _image.tipAmmount += msg.value;\n        delete allImage[_id - 1];\n        allImage[_id - 1] = _image;\n        emit ImageTipped(\n            _id,\n            msg.sender,\n            msg.value,\n            _image.hash,\n            _image.description\n        );\n    }\n}\n",
  "sourcePath": "C:/Users/raja roy/Desktop/instagram-clone/contracts/Instagram.sol",
  "compiler": {
    "name": "solc",
    "version": "0.7.0+commit.9e61f92b.Emscripten.clang"
  },
  "schemaVersion": "3.3.1",
  "updatedAt": "2020-11-06T11:51:10.179Z",
  "networkType": "ethereum",
  "devdoc": {
    "kind": "dev",
    "methods": {},
    "version": 1
  },
  "userdoc": {
    "kind": "user",
    "methods": {},
    "version": 1
  }
}